{"abi":[{"type":"constructor","inputs":[{"name":"_poolManager","type":"address","internalType":"contract IPoolManager"},{"name":"_initialOwner","type":"address","internalType":"address"}],"stateMutability":"nonpayable"},{"type":"function","name":"GAS_LIMIT_PER_ORDER","inputs":[],"outputs":[{"name":"","type":"uint256","internalType":"uint256"}],"stateMutability":"view"},{"type":"function","name":"MAX_ACTIVE_TICK_SCAN","inputs":[],"outputs":[{"name":"","type":"int24","internalType":"int24"}],"stateMutability":"view"},{"type":"function","name":"MAX_FEE_BPS","inputs":[],"outputs":[{"name":"","type":"uint256","internalType":"uint256"}],"stateMutability":"view"},{"type":"function","name":"MAX_SLIPPAGE_BPS","inputs":[],"outputs":[{"name":"","type":"uint256","internalType":"uint256"}],"stateMutability":"view"},{"type":"function","name":"SENTINEL_MAX","inputs":[],"outputs":[{"name":"","type":"int24","internalType":"int24"}],"stateMutability":"view"},{"type":"function","name":"SENTINEL_MIN","inputs":[],"outputs":[{"name":"","type":"int24","internalType":"int24"}],"stateMutability":"view"},{"type":"function","name":"afterAddLiquidity","inputs":[{"name":"sender","type":"address","internalType":"address"},{"name":"key","type":"tuple","internalType":"struct PoolKey","components":[{"name":"currency0","type":"address","internalType":"Currency"},{"name":"currency1","type":"address","internalType":"Currency"},{"name":"fee","type":"uint24","internalType":"uint24"},{"name":"tickSpacing","type":"int24","internalType":"int24"},{"name":"hooks","type":"address","internalType":"contract IHooks"}]},{"name":"params","type":"tuple","internalType":"struct IPoolManager.ModifyLiquidityParams","components":[{"name":"tickLower","type":"int24","internalType":"int24"},{"name":"tickUpper","type":"int24","internalType":"int24"},{"name":"liquidityDelta","type":"int256","internalType":"int256"},{"name":"salt","type":"bytes32","internalType":"bytes32"}]},{"name":"delta","type":"int256","internalType":"BalanceDelta"},{"name":"feesAccrued","type":"int256","internalType":"BalanceDelta"},{"name":"hookData","type":"bytes","internalType":"bytes"}],"outputs":[{"name":"","type":"bytes4","internalType":"bytes4"},{"name":"","type":"int256","internalType":"BalanceDelta"}],"stateMutability":"nonpayable"},{"type":"function","name":"afterDonate","inputs":[{"name":"sender","type":"address","internalType":"address"},{"name":"key","type":"tuple","internalType":"struct PoolKey","components":[{"name":"currency0","type":"address","internalType":"Currency"},{"name":"currency1","type":"address","internalType":"Currency"},{"name":"fee","type":"uint24","internalType":"uint24"},{"name":"tickSpacing","type":"int24","internalType":"int24"},{"name":"hooks","type":"address","internalType":"contract IHooks"}]},{"name":"amount0","type":"uint256","internalType":"uint256"},{"name":"amount1","type":"uint256","internalType":"uint256"},{"name":"hookData","type":"bytes","internalType":"bytes"}],"outputs":[{"name":"","type":"bytes4","internalType":"bytes4"}],"stateMutability":"nonpayable"},{"type":"function","name":"afterInitialize","inputs":[{"name":"sender","type":"address","internalType":"address"},{"name":"key","type":"tuple","internalType":"struct PoolKey","components":[{"name":"currency0","type":"address","internalType":"Currency"},{"name":"currency1","type":"address","internalType":"Currency"},{"name":"fee","type":"uint24","internalType":"uint24"},{"name":"tickSpacing","type":"int24","internalType":"int24"},{"name":"hooks","type":"address","internalType":"contract IHooks"}]},{"name":"sqrtPriceX96","type":"uint160","internalType":"uint160"},{"name":"tick","type":"int24","internalType":"int24"}],"outputs":[{"name":"","type":"bytes4","internalType":"bytes4"}],"stateMutability":"nonpayable"},{"type":"function","name":"afterRemoveLiquidity","inputs":[{"name":"sender","type":"address","internalType":"address"},{"name":"key","type":"tuple","internalType":"struct PoolKey","components":[{"name":"currency0","type":"address","internalType":"Currency"},{"name":"currency1","type":"address","internalType":"Currency"},{"name":"fee","type":"uint24","internalType":"uint24"},{"name":"tickSpacing","type":"int24","internalType":"int24"},{"name":"hooks","type":"address","internalType":"contract IHooks"}]},{"name":"params","type":"tuple","internalType":"struct IPoolManager.ModifyLiquidityParams","components":[{"name":"tickLower","type":"int24","internalType":"int24"},{"name":"tickUpper","type":"int24","internalType":"int24"},{"name":"liquidityDelta","type":"int256","internalType":"int256"},{"name":"salt","type":"bytes32","internalType":"bytes32"}]},{"name":"delta","type":"int256","internalType":"BalanceDelta"},{"name":"feesAccrued","type":"int256","internalType":"BalanceDelta"},{"name":"hookData","type":"bytes","internalType":"bytes"}],"outputs":[{"name":"","type":"bytes4","internalType":"bytes4"},{"name":"","type":"int256","internalType":"BalanceDelta"}],"stateMutability":"nonpayable"},{"type":"function","name":"afterSwap","inputs":[{"name":"sender","type":"address","internalType":"address"},{"name":"key","type":"tuple","internalType":"struct PoolKey","components":[{"name":"currency0","type":"address","internalType":"Currency"},{"name":"currency1","type":"address","internalType":"Currency"},{"name":"fee","type":"uint24","internalType":"uint24"},{"name":"tickSpacing","type":"int24","internalType":"int24"},{"name":"hooks","type":"address","internalType":"contract IHooks"}]},{"name":"params","type":"tuple","internalType":"struct IPoolManager.SwapParams","components":[{"name":"zeroForOne","type":"bool","internalType":"bool"},{"name":"amountSpecified","type":"int256","internalType":"int256"},{"name":"sqrtPriceLimitX96","type":"uint160","internalType":"uint160"}]},{"name":"delta","type":"int256","internalType":"BalanceDelta"},{"name":"hookData","type":"bytes","internalType":"bytes"}],"outputs":[{"name":"","type":"bytes4","internalType":"bytes4"},{"name":"","type":"int128","internalType":"int128"}],"stateMutability":"nonpayable"},{"type":"function","name":"beforeAddLiquidity","inputs":[{"name":"sender","type":"address","internalType":"address"},{"name":"key","type":"tuple","internalType":"struct PoolKey","components":[{"name":"currency0","type":"address","internalType":"Currency"},{"name":"currency1","type":"address","internalType":"Currency"},{"name":"fee","type":"uint24","internalType":"uint24"},{"name":"tickSpacing","type":"int24","internalType":"int24"},{"name":"hooks","type":"address","internalType":"contract IHooks"}]},{"name":"params","type":"tuple","internalType":"struct IPoolManager.ModifyLiquidityParams","components":[{"name":"tickLower","type":"int24","internalType":"int24"},{"name":"tickUpper","type":"int24","internalType":"int24"},{"name":"liquidityDelta","type":"int256","internalType":"int256"},{"name":"salt","type":"bytes32","internalType":"bytes32"}]},{"name":"hookData","type":"bytes","internalType":"bytes"}],"outputs":[{"name":"","type":"bytes4","internalType":"bytes4"}],"stateMutability":"nonpayable"},{"type":"function","name":"beforeDonate","inputs":[{"name":"sender","type":"address","internalType":"address"},{"name":"key","type":"tuple","internalType":"struct PoolKey","components":[{"name":"currency0","type":"address","internalType":"Currency"},{"name":"currency1","type":"address","internalType":"Currency"},{"name":"fee","type":"uint24","internalType":"uint24"},{"name":"tickSpacing","type":"int24","internalType":"int24"},{"name":"hooks","type":"address","internalType":"contract IHooks"}]},{"name":"amount0","type":"uint256","internalType":"uint256"},{"name":"amount1","type":"uint256","internalType":"uint256"},{"name":"hookData","type":"bytes","internalType":"bytes"}],"outputs":[{"name":"","type":"bytes4","internalType":"bytes4"}],"stateMutability":"nonpayable"},{"type":"function","name":"beforeInitialize","inputs":[{"name":"sender","type":"address","internalType":"address"},{"name":"key","type":"tuple","internalType":"struct PoolKey","components":[{"name":"currency0","type":"address","internalType":"Currency"},{"name":"currency1","type":"address","internalType":"Currency"},{"name":"fee","type":"uint24","internalType":"uint24"},{"name":"tickSpacing","type":"int24","internalType":"int24"},{"name":"hooks","type":"address","internalType":"contract IHooks"}]},{"name":"sqrtPriceX96","type":"uint160","internalType":"uint160"}],"outputs":[{"name":"","type":"bytes4","internalType":"bytes4"}],"stateMutability":"nonpayable"},{"type":"function","name":"beforeRemoveLiquidity","inputs":[{"name":"sender","type":"address","internalType":"address"},{"name":"key","type":"tuple","internalType":"struct PoolKey","components":[{"name":"currency0","type":"address","internalType":"Currency"},{"name":"currency1","type":"address","internalType":"Currency"},{"name":"fee","type":"uint24","internalType":"uint24"},{"name":"tickSpacing","type":"int24","internalType":"int24"},{"name":"hooks","type":"address","internalType":"contract IHooks"}]},{"name":"params","type":"tuple","internalType":"struct IPoolManager.ModifyLiquidityParams","components":[{"name":"tickLower","type":"int24","internalType":"int24"},{"name":"tickUpper","type":"int24","internalType":"int24"},{"name":"liquidityDelta","type":"int256","internalType":"int256"},{"name":"salt","type":"bytes32","internalType":"bytes32"}]},{"name":"hookData","type":"bytes","internalType":"bytes"}],"outputs":[{"name":"","type":"bytes4","internalType":"bytes4"}],"stateMutability":"nonpayable"},{"type":"function","name":"beforeSwap","inputs":[{"name":"sender","type":"address","internalType":"address"},{"name":"key","type":"tuple","internalType":"struct PoolKey","components":[{"name":"currency0","type":"address","internalType":"Currency"},{"name":"currency1","type":"address","internalType":"Currency"},{"name":"fee","type":"uint24","internalType":"uint24"},{"name":"tickSpacing","type":"int24","internalType":"int24"},{"name":"hooks","type":"address","internalType":"contract IHooks"}]},{"name":"params","type":"tuple","internalType":"struct IPoolManager.SwapParams","components":[{"name":"zeroForOne","type":"bool","internalType":"bool"},{"name":"amountSpecified","type":"int256","internalType":"int256"},{"name":"sqrtPriceLimitX96","type":"uint160","internalType":"uint160"}]},{"name":"hookData","type":"bytes","internalType":"bytes"}],"outputs":[{"name":"","type":"bytes4","internalType":"bytes4"},{"name":"","type":"int256","internalType":"BeforeSwapDelta"},{"name":"","type":"uint24","internalType":"uint24"}],"stateMutability":"nonpayable"},{"type":"function","name":"cancelOrder","inputs":[{"name":"orderId","type":"uint256","internalType":"uint256"}],"outputs":[],"stateMutability":"nonpayable"},{"type":"function","name":"createLimitOrder","inputs":[{"name":"poolKey","type":"tuple","internalType":"struct PoolKey","components":[{"name":"currency0","type":"address","internalType":"Currency"},{"name":"currency1","type":"address","internalType":"Currency"},{"name":"fee","type":"uint24","internalType":"uint24"},{"name":"tickSpacing","type":"int24","internalType":"int24"},{"name":"hooks","type":"address","internalType":"contract IHooks"}]},{"name":"zeroForOne","type":"bool","internalType":"bool"},{"name":"amountIn","type":"uint96","internalType":"uint96"},{"name":"triggerPrice","type":"uint128","internalType":"uint128"}],"outputs":[{"name":"orderId","type":"uint256","internalType":"uint256"}],"stateMutability":"nonpayable"},{"type":"function","name":"feeBps","inputs":[],"outputs":[{"name":"","type":"uint256","internalType":"uint256"}],"stateMutability":"view"},{"type":"function","name":"forceCancelOrder","inputs":[{"name":"orderId","type":"uint256","internalType":"uint256"}],"outputs":[],"stateMutability":"nonpayable"},{"type":"function","name":"getHookPermissions","inputs":[],"outputs":[{"name":"","type":"tuple","internalType":"struct Hooks.Permissions","components":[{"name":"beforeInitialize","type":"bool","internalType":"bool"},{"name":"afterInitialize","type":"bool","internalType":"bool"},{"name":"beforeAddLiquidity","type":"bool","internalType":"bool"},{"name":"afterAddLiquidity","type":"bool","internalType":"bool"},{"name":"beforeRemoveLiquidity","type":"bool","internalType":"bool"},{"name":"afterRemoveLiquidity","type":"bool","internalType":"bool"},{"name":"beforeSwap","type":"bool","internalType":"bool"},{"name":"afterSwap","type":"bool","internalType":"bool"},{"name":"beforeDonate","type":"bool","internalType":"bool"},{"name":"afterDonate","type":"bool","internalType":"bool"},{"name":"beforeSwapReturnDelta","type":"bool","internalType":"bool"},{"name":"afterSwapReturnDelta","type":"bool","internalType":"bool"},{"name":"afterAddLiquidityReturnDelta","type":"bool","internalType":"bool"},{"name":"afterRemoveLiquidityReturnDelta","type":"bool","internalType":"bool"}]}],"stateMutability":"pure"},{"type":"function","name":"getNextActiveTick","inputs":[{"name":"tick","type":"int24","internalType":"int24"}],"outputs":[{"name":"","type":"int24","internalType":"int24"}],"stateMutability":"view"},{"type":"function","name":"getOrder","inputs":[{"name":"orderId","type":"uint256","internalType":"uint256"}],"outputs":[{"name":"","type":"tuple","internalType":"struct LimitOrderHook.LimitOrder","components":[{"name":"creator","type":"address","internalType":"address"},{"name":"amount0","type":"uint96","internalType":"uint96"},{"name":"amount1","type":"uint96","internalType":"uint96"},{"name":"token0","type":"address","internalType":"address"},{"name":"token1","type":"address","internalType":"address"},{"name":"triggerPrice","type":"uint128","internalType":"uint128"},{"name":"createdAt","type":"uint64","internalType":"uint64"},{"name":"isFilled","type":"bool","internalType":"bool"},{"name":"zeroForOne","type":"bool","internalType":"bool"}]}],"stateMutability":"view"},{"type":"function","name":"getOrdersInTick","inputs":[{"name":"tick","type":"int24","internalType":"int24"}],"outputs":[{"name":"","type":"uint256[]","internalType":"uint256[]"}],"stateMutability":"view"},{"type":"function","name":"getPendingFees","inputs":[{"name":"currency","type":"address","internalType":"Currency"}],"outputs":[{"name":"","type":"uint256","internalType":"uint256"}],"stateMutability":"view"},{"type":"function","name":"getPrevActiveTick","inputs":[{"name":"tick","type":"int24","internalType":"int24"}],"outputs":[{"name":"","type":"int24","internalType":"int24"}],"stateMutability":"view"},{"type":"function","name":"getTickBucket","inputs":[{"name":"orderId","type":"uint256","internalType":"uint256"}],"outputs":[{"name":"","type":"int24","internalType":"int24"}],"stateMutability":"view"},{"type":"function","name":"getUserOrders","inputs":[{"name":"user","type":"address","internalType":"address"}],"outputs":[{"name":"","type":"uint256[]","internalType":"uint256[]"}],"stateMutability":"view"},{"type":"function","name":"isActiveTick","inputs":[{"name":"","type":"int24","internalType":"int24"}],"outputs":[{"name":"","type":"bool","internalType":"bool"}],"stateMutability":"view"},{"type":"function","name":"nextActiveTick","inputs":[{"name":"","type":"int24","internalType":"int24"}],"outputs":[{"name":"","type":"int24","internalType":"int24"}],"stateMutability":"view"},{"type":"function","name":"nextOrderId","inputs":[],"outputs":[{"name":"","type":"uint256","internalType":"uint256"}],"stateMutability":"view"},{"type":"function","name":"orders","inputs":[{"name":"","type":"uint256","internalType":"uint256"}],"outputs":[{"name":"creator","type":"address","internalType":"address"},{"name":"amount0","type":"uint96","internalType":"uint96"},{"name":"amount1","type":"uint96","internalType":"uint96"},{"name":"token0","type":"address","internalType":"address"},{"name":"token1","type":"address","internalType":"address"},{"name":"triggerPrice","type":"uint128","internalType":"uint128"},{"name":"createdAt","type":"uint64","internalType":"uint64"},{"name":"isFilled","type":"bool","internalType":"bool"},{"name":"zeroForOne","type":"bool","internalType":"bool"}],"stateMutability":"view"},{"type":"function","name":"owner","inputs":[],"outputs":[{"name":"","type":"address","internalType":"address"}],"stateMutability":"view"},{"type":"function","name":"pendingFees","inputs":[{"name":"","type":"address","internalType":"Currency"}],"outputs":[{"name":"","type":"uint256","internalType":"uint256"}],"stateMutability":"view"},{"type":"function","name":"poolManager","inputs":[],"outputs":[{"name":"","type":"address","internalType":"contract IPoolManager"}],"stateMutability":"view"},{"type":"function","name":"prevActiveTick","inputs":[{"name":"","type":"int24","internalType":"int24"}],"outputs":[{"name":"","type":"int24","internalType":"int24"}],"stateMutability":"view"},{"type":"function","name":"renounceOwnership","inputs":[],"outputs":[],"stateMutability":"nonpayable"},{"type":"function","name":"setFeeBps","inputs":[{"name":"newFeeBps","type":"uint256","internalType":"uint256"}],"outputs":[],"stateMutability":"nonpayable"},{"type":"function","name":"sqrt","inputs":[{"name":"x","type":"uint256","internalType":"uint256"}],"outputs":[{"name":"y","type":"uint256","internalType":"uint256"}],"stateMutability":"pure"},{"type":"function","name":"sqrtPriceToUint128","inputs":[{"name":"sqrtPriceX96","type":"uint160","internalType":"uint160"}],"outputs":[{"name":"price","type":"uint128","internalType":"uint128"}],"stateMutability":"pure"},{"type":"function","name":"tickToOrders","inputs":[{"name":"","type":"int24","internalType":"int24"},{"name":"","type":"uint256","internalType":"uint256"}],"outputs":[{"name":"","type":"uint256","internalType":"uint256"}],"stateMutability":"view"},{"type":"function","name":"transferOwnership","inputs":[{"name":"newOwner","type":"address","internalType":"address"}],"outputs":[],"stateMutability":"nonpayable"},{"type":"function","name":"uint128ToSqrtPrice","inputs":[{"name":"price","type":"uint128","internalType":"uint128"}],"outputs":[{"name":"sqrtPriceX96","type":"uint160","internalType":"uint160"}],"stateMutability":"pure"},{"type":"function","name":"withdrawFees","inputs":[{"name":"currency","type":"address","internalType":"Currency"},{"name":"recipient","type":"address","internalType":"address"}],"outputs":[],"stateMutability":"nonpayable"},{"type":"event","name":"FeeBpsUpdated","inputs":[{"name":"oldFeeBps","type":"uint256","indexed":false,"internalType":"uint256"},{"name":"newFeeBps","type":"uint256","indexed":false,"internalType":"uint256"}],"anonymous":false},{"type":"event","name":"FeeCollected","inputs":[{"name":"orderId","type":"uint256","indexed":true,"internalType":"uint256"},{"name":"currency","type":"address","indexed":true,"internalType":"Currency"},{"name":"feeAmount","type":"uint256","indexed":false,"internalType":"uint256"}],"anonymous":false},{"type":"event","name":"FeesWithdrawn","inputs":[{"name":"currency","type":"address","indexed":true,"internalType":"Currency"},{"name":"recipient","type":"address","indexed":true,"internalType":"address"},{"name":"amount","type":"uint256","indexed":false,"internalType":"uint256"}],"anonymous":false},{"type":"event","name":"OrderCancelled","inputs":[{"name":"orderId","type":"uint256","indexed":true,"internalType":"uint256"},{"name":"creator","type":"address","indexed":true,"internalType":"address"}],"anonymous":false},{"type":"event","name":"OrderCreated","inputs":[{"name":"orderId","type":"uint256","indexed":true,"internalType":"uint256"},{"name":"creator","type":"address","indexed":true,"internalType":"address"},{"name":"zeroForOne","type":"bool","indexed":false,"internalType":"bool"},{"name":"amountIn","type":"uint96","indexed":false,"internalType":"uint96"},{"name":"triggerPrice","type":"uint128","indexed":false,"internalType":"uint128"}],"anonymous":false},{"type":"event","name":"OrderExecutionFailed","inputs":[{"name":"orderId","type":"uint256","indexed":true,"internalType":"uint256"},{"name":"reason","type":"string","indexed":false,"internalType":"string"}],"anonymous":false},{"type":"event","name":"OrderFilled","inputs":[{"name":"orderId","type":"uint256","indexed":true,"internalType":"uint256"},{"name":"creator","type":"address","indexed":true,"internalType":"address"},{"name":"amountIn","type":"uint96","indexed":false,"internalType":"uint96"},{"name":"amountOut","type":"uint96","indexed":false,"internalType":"uint96"},{"name":"executionPrice","type":"uint128","indexed":false,"internalType":"uint128"}],"anonymous":false},{"type":"event","name":"OrderForceCancelled","inputs":[{"name":"orderId","type":"uint256","indexed":true,"internalType":"uint256"},{"name":"admin","type":"address","indexed":true,"internalType":"address"}],"anonymous":false},{"type":"event","name":"OwnershipTransferred","inputs":[{"name":"previousOwner","type":"address","indexed":true,"internalType":"address"},{"name":"newOwner","type":"address","indexed":true,"internalType":"address"}],"anonymous":false},{"type":"error","name":"FeeTooHigh","inputs":[]},{"type":"error","name":"HookNotImplemented","inputs":[]},{"type":"error","name":"IndexOutOfBounds","inputs":[]},{"type":"error","name":"InvalidAmount","inputs":[]},{"type":"error","name":"InvalidPoolKey","inputs":[]},{"type":"error","name":"InvalidTriggerPrice","inputs":[]},{"type":"error","name":"NoFeesToWithdraw","inputs":[]},{"type":"error","name":"NotOrderCreator","inputs":[]},{"type":"error","name":"NotPoolManager","inputs":[]},{"type":"error","name":"OrderAlreadyFilled","inputs":[]},{"type":"error","name":"OrderNotActive","inputs":[]},{"type":"error","name":"OwnableInvalidOwner","inputs":[{"name":"owner","type":"address","internalType":"address"}]},{"type":"error","name":"OwnableUnauthorizedAccount","inputs":[{"name":"account","type":"address","internalType":"address"}]},{"type":"error","name":"ReentrancyGuardReentrantCall","inputs":[]},{"type":"error","name":"SafeCastOverflowedUintDowncast","inputs":[{"name":"bits","type":"uint8","internalType":"uint8"},{"name":"value","type":"uint256","internalType":"uint256"}]},{"type":"error","name":"SafeERC20FailedOperation","inputs":[{"name":"token","type":"address","internalType":"address"}]}],"bytecode":{"object":"0x60a06040523461038d57604051601f6151d638819003918201601f19168301916001600160401b0383118484101761039157808492604094855283398101031261038d578051906001600160a01b038216820361038d57602001516001600160a01b038116919082900361038d576080525f6101a061007c6103a5565b8281528260208201528260408201528260608201528260808201528260a08201528260c08201528260e0820152826101008201528261012082015282610140820152826101608201528261018082015201525f6101a06100da6103a5565b8281528260208201528260408201528260608201528260808201528260a08201528260c0820152600160e082015282610100820152826101208201528261014082015282610160820152826101808201520152612000301615801590610380575b8015610373575b8015610366575b8015610359575b801561034c575b8015610340575b8015610330575b8015610324575b8015610318575b801561030c575b8015610300575b80156102f4575b80156102e8575b6102d55760017f9b779b17422d0df92223018b32b4d1fa46e071723d6817e2486d003becc55f005580156102c2575f80546001600160a01b031981168317825560405192916001600160a01b03909116907f8be0079c531659141344cd1fd0a4f28419497f9722a3daafe3b4186f6b6457e09080a36005600a557f1d90985ad18a41820b494ca6b2645fdac2e60689eb718cc03c4b28ec8b679014805462ffffff19908116627fffff9081179092555f9190915260076020527fa51472851f2a9320021f73aa454c1a9b411776c307ddac663184934b796d6dac805490911662800000179055614e1090816103c6823960805181818161045501528181610829015281816108c101528181610e920152818161118d015281816124ef015281816128a9015281816135040152613a680152f35b631e4fbdf760e01b5f525f60045260245ffd5b630732d7b560e51b5f523060045260245ffd5b5060013016151561018f565b50600230161515610188565b50600430161515610181565b5060083016151561017a565b50601030161515610173565b5060203016151561016c565b5060403016151560011415610165565b5060803016151561015e565b5061010030161515610157565b5061020030161515610150565b5061040030161515610149565b5061080030161515610142565b506110003016151561013b565b5f80fd5b634e487b7160e01b5f52604160045260245ffd5b604051906101c082016001600160401b038111838210176103915760405256fe6080806040526004361015610012575f80fd5b5f3560e01c9081630d019c32146129325750806321d0ee701461287f57806324a9d853146128f7578063259982e51461287f57806325d2a3f3146110fe5780632a58b330146128445780632b095682146127ef5780633d7051ec146127b65780633f950cdb1461276b578063514fcac71461253d578063575e24b41461242857806358a86a01146114bd5780636156715c14610f6057806363c69f0814611420578063677342ce146113dc5780636bb67da3146110ab5780636c2bbe7e146111615780636fe7e6eb14611368578063715018a6146112ce57806372c27b621461122b5780638da5cb5b146111db5780639f063efc14611161578063a4bf34ba146110fe578063a64344e1146110ab578063a85c38ef14610fb3578063a8c95f6014610f60578063b210c18b14610ef3578063b47b2fb114610dcb578063b6a8b0fa1461042a578063c06d413014610d70578063c4e833ce14610bed578063cc4a672414610b79578063d09ef2411461097f578063d55be8c614610425578063d90e9aac146108e5578063dc4c90d314610877578063dc98354e146107a7578063dd0bd5751461076c578063deb2ec6a146104cb578063e1b4af691461042a578063e229cd7614610425578063e610e98b146103ea578063f2555278146102f05763f2fde38b14610200575f80fd5b346102ec5760207ffffffffffffffffffffffffffffffffffffffffffffffffffffffffffffffffc3601126102ec5773ffffffffffffffffffffffffffffffffffffffff61024c612988565b61025461340e565b1680156102c05773ffffffffffffffffffffffffffffffffffffffff5f54827fffffffffffffffffffffffff00000000000000000000000000000000000000008216175f55167f8be0079c531659141344cd1fd0a4f28419497f9722a3daafe3b4186f6b6457e05f80a3005b7f1e4fbdf7000000000000000000000000000000000000000000000000000000005f525f60045260245ffd5b5f80fd5b346102ec5760407ffffffffffffffffffffffffffffffffffffffffffffffffffffffffffffffffc3601126102ec57610327612988565b60243573ffffffffffffffffffffffffffffffffffffffff8116918282036102ec5773ffffffffffffffffffffffffffffffffffffffff9061036761340e565b1690815f52600b60205260405f20549081156103c257816103b97f5e110f8bc8a20b65dcc87f224bdf1cc039346e267118bae2739847f07321ffa893602093865f52600b85525f6040812055866132b9565b604051908152a3005b7f6806da68000000000000000000000000000000000000000000000000000000005f5260045ffd5b346102ec575f7ffffffffffffffffffffffffffffffffffffffffffffffffffffffffffffffffc3601126102ec576020604051620249f08152f35b612d03565b346102ec5761043836612c62565b50505050505073ffffffffffffffffffffffffffffffffffffffff7f00000000000000000000000000000000000000000000000000000000000000001633036104a3577f0a85dc29000000000000000000000000000000000000000000000000000000005f5260045ffd5b7fae18210a000000000000000000000000000000000000000000000000000000005f5260045ffd5b346102ec5760207ffffffffffffffffffffffffffffffffffffffffffffffffffffffffffffffffc3601126102ec5760043561050561340e565b805f52600160205260405f20600381019060ff825460c01c1661074457805473ffffffffffffffffffffffffffffffffffffffff8116159081610738575b508061071e575b6106f657825f52600560205260405f205460020b91825f52600460205260405f20925f5b84548110156106ec57856105828287612c20565b90549060031b1c146105965760010161056e565b6105a2906001956130df565b805f52600460205260405f2054156106dd575b50815473ffffffffffffffffffffffffffffffffffffffff81169182610630575b50505f8083559290910180547fffffffffffffffffffffffffffffffffffffffff000000000000000000000000169055503391907f9db1d956a359cef05b9fe091fc931bc3dbc765bf29f52c075850c8b9b92a053a9080a3005b5460c81c60ff16908190816106d0575b5015610666575061065e908383015460601c90835460a01c916132b9565b8380806105d6565b15806106b6575b610678575b5061065e565b6106b09073ffffffffffffffffffffffffffffffffffffffff600284015416906bffffffffffffffffffffffff8585015416916132b9565b83610672565b506bffffffffffffffffffffffff8383015416151561066d565b905060a01c151586610640565b6106e6906131ec565b846105b5565b50600193506105a2565b7f1d4ecc5b000000000000000000000000000000000000000000000000000000005f5260045ffd5b506bffffffffffffffffffffffff6001820154161561054a565b905060a01c1584610543565b7fee3b3d4b000000000000000000000000000000000000000000000000000000005f5260045ffd5b346102ec575f7ffffffffffffffffffffffffffffffffffffffffffffffffffffffffffffffffc3601126102ec576020604051627fffff8152f35b346102ec5760e07ffffffffffffffffffffffffffffffffffffffffffffffffffffffffffffffffc3601126102ec576107de612988565b5060a07fffffffffffffffffffffffffffffffffffffffffffffffffffffffffffffffdc3601126102ec57610811612bfd565b5073ffffffffffffffffffffffffffffffffffffffff7f00000000000000000000000000000000000000000000000000000000000000001633036104a3577f0a85dc29000000000000000000000000000000000000000000000000000000005f5260045ffd5b346102ec575f7ffffffffffffffffffffffffffffffffffffffffffffffffffffffffffffffffc3601126102ec57602060405173ffffffffffffffffffffffffffffffffffffffff7f0000000000000000000000000000000000000000000000000000000000000000168152f35b346102ec5760207ffffffffffffffffffffffffffffffffffffffffffffffffffffffffffffffffc3601126102ec5761091c612ac5565b60020b5f52600460205260405f206040519081602082549182815201915f5260205f20905f5b818110610969576109658561095981870382612e01565b60405191829182612af3565b0390f35b8254845260209093019260019283019201610942565b346102ec5760207ffffffffffffffffffffffffffffffffffffffffffffffffffffffffffffffffc3601126102ec576040516109ba81612d9a565b5f8152602081015f9052604081015f9052606081015f9052608081015f905260a081015f905260c081015f905260e081015f9052610100015f90526004355f52600160205260405f2060405190610a1082612d9a565b80549173ffffffffffffffffffffffffffffffffffffffff831692838252602082019060a01c815260018301549260408301906bffffffffffffffffffffffff85168252606084019460601c8552600281015473ffffffffffffffffffffffffffffffffffffffff169060808501918252600301549460a08501926fffffffffffffffffffffffffffffffff8716845260c08601948760801c67ffffffffffffffff16865260e08701968860c01c60ff1615158852610100019760c81c60ff1615158852604051988952516bffffffffffffffffffffffff166020890152516bffffffffffffffffffffffff1660408801525173ffffffffffffffffffffffffffffffffffffffff1660608701525173ffffffffffffffffffffffffffffffffffffffff166080860152516fffffffffffffffffffffffffffffffff1660a08501525167ffffffffffffffff1660c084015251151560e083015251151561010082015261012090f35b346102ec5760207ffffffffffffffffffffffffffffffffffffffffffffffffffffffffffffffffc3601126102ec576004356fffffffffffffffffffffffffffffffff811681036102ec57610bcf602091612fcd565b73ffffffffffffffffffffffffffffffffffffffff60405191168152f35b346102ec575f7ffffffffffffffffffffffffffffffffffffffffffffffffffffffffffffffffc3601126102ec575f6101a0604051610c2b81612de4565b8281528260208201528260408201528260608201528260808201528260a08201528260c08201528260e0820152826101008201528261012082015282610140820152826101608201528261018082015201526101c06020604051610c8e81612de4565b5f8152818101905f8252604081015f8152606082015f8152608083015f815260a084015f815260c085015f815260e0860190600182526101008701925f84526101208801945f86526101408901965f88526101608a01985f8a526101a06101808c019b5f8d52019b5f8d526040519d8e915f835251151591015251151560408d015251151560608c015251151560808b015251151560a08a015251151560c089015251151560e08801525115156101008701525115156101208601525115156101408501525115156101608401525115156101808301525115156101a0820152f35b346102ec5760207ffffffffffffffffffffffffffffffffffffffffffffffffffffffffffffffffc3601126102ec576020610db1610dac612988565b612f2a565b6fffffffffffffffffffffffffffffffff60405191168152f35b346102ec576101607ffffffffffffffffffffffffffffffffffffffffffffffffffffffffffffffffc3601126102ec57610e03612988565b5060a07fffffffffffffffffffffffffffffffffffffffffffffffffffffffffffffffdc3601126102ec5760607fffffffffffffffffffffffffffffffffffffffffffffffffffffffffffffff3c3601126102ec576101443567ffffffffffffffff81116102ec57610e799036906004016129cc565b505073ffffffffffffffffffffffffffffffffffffffff7f00000000000000000000000000000000000000000000000000000000000000001633036104a3576040610ec26134e4565b7fffffffff00000000000000000000000000000000000000000000000000000000835192168252600f0b6020820152f35b346102ec5760407ffffffffffffffffffffffffffffffffffffffffffffffffffffffffffffffffc3601126102ec57610f2a612ac5565b6024359060020b5f52600460205260405f2080548210156102ec57602091610f5191612c20565b90549060031b1c604051908152f35b346102ec5760207ffffffffffffffffffffffffffffffffffffffffffffffffffffffffffffffffc3601126102ec57610f97612ac5565b60020b5f526006602052602060405f205460020b604051908152f35b346102ec5760207ffffffffffffffffffffffffffffffffffffffffffffffffffffffffffffffffc3601126102ec576004355f52600160205261012060405f2060ff815491600181015490600373ffffffffffffffffffffffffffffffffffffffff600283015416910154916040519473ffffffffffffffffffffffffffffffffffffffff8116865260a01c60208601526bffffffffffffffffffffffff8116604086015260601c606085015260808401526fffffffffffffffffffffffffffffffff811660a084015267ffffffffffffffff8160801c1660c0840152818160c01c16151560e084015260c81c161515610100820152f35b346102ec5760207ffffffffffffffffffffffffffffffffffffffffffffffffffffffffffffffffc3601126102ec576110e2612ac5565b60020b5f526007602052602060405f205460020b604051908152f35b346102ec5760207ffffffffffffffffffffffffffffffffffffffffffffffffffffffffffffffffc3601126102ec5773ffffffffffffffffffffffffffffffffffffffff61114a612988565b165f52600b602052602060405f2054604051908152f35b346102ec5761116f36612b2c565b5050505050505073ffffffffffffffffffffffffffffffffffffffff7f00000000000000000000000000000000000000000000000000000000000000001633036104a3577f0a85dc29000000000000000000000000000000000000000000000000000000005f5260045ffd5b346102ec575f7ffffffffffffffffffffffffffffffffffffffffffffffffffffffffffffffffc3601126102ec57602073ffffffffffffffffffffffffffffffffffffffff5f5416604051908152f35b346102ec5760207ffffffffffffffffffffffffffffffffffffffffffffffffffffffffffffffffc3601126102ec5760043561126561340e565b603281116112a65760407f5ec5620e288c4be955ccb6cfb3d55431a8fed5c4c96ffacc4b9506360695f64e91600a549080600a5582519182526020820152a1005b7fcd4e6167000000000000000000000000000000000000000000000000000000005f5260045ffd5b346102ec575f7ffffffffffffffffffffffffffffffffffffffffffffffffffffffffffffffffc3601126102ec5761130461340e565b5f73ffffffffffffffffffffffffffffffffffffffff81547fffffffffffffffffffffffff000000000000000000000000000000000000000081168355167f8be0079c531659141344cd1fd0a4f28419497f9722a3daafe3b4186f6b6457e08280a3005b346102ec576101007ffffffffffffffffffffffffffffffffffffffffffffffffffffffffffffffffc3601126102ec576113a0612988565b5060a07fffffffffffffffffffffffffffffffffffffffffffffffffffffffffffffffdc3601126102ec576113d3612bfd565b50610811612ad5565b346102ec5760207ffffffffffffffffffffffffffffffffffffffffffffffffffffffffffffffffc3601126102ec576020611418600435612eb9565b604051908152f35b346102ec5760207ffffffffffffffffffffffffffffffffffffffffffffffffffffffffffffffffc3601126102ec5773ffffffffffffffffffffffffffffffffffffffff61146c612988565b165f52600260205260405f206040519081602082549182815201915f5260205f20905f5b8181106114a7576109658561095981870382612e01565b8254845260209093019260019283019201611490565b346102ec577ffffffffffffffffffffffffffffffffffffffffffffffffffffffffffffffffc360161010081126102ec5760a0136102ec5760a435801515908181036102ec5760c435916bffffffffffffffffffffffff8316928381036102ec5760e435906fffffffffffffffffffffffffffffffff8216918281036102ec5761154561305b565b85156124005782156123d8575f61155a612d3c565b60020b13156123b0576003549461157086612d4c565b6003556004359073ffffffffffffffffffffffffffffffffffffffff8216918281036102ec57506024359073ffffffffffffffffffffffffffffffffffffffff8216908183036102ec576fffffffffffffffffffffffffffffffff60038a936118ca988b96508d855f1461239f576115ea9030338b613383565b84156123985780945b1561237c575073ffffffffffffffffffffffffffffffffffffffff5f915b6040519261161e84612d9a565b3384526bffffffffffffffffffffffff60208501971687526bffffffffffffffffffffffff604085019116815260608401998a526080840191825260a08401998d8b526117136bffffffffffffffffffffffff60c087019967ffffffffffffffff42168b5260e088019b5f8d5261010089019d8e525f526001602052868060405f20995116167fffffffffffffffffffffffff00000000000000000000000000000000000000008954161788555116869073ffffffffffffffffffffffffffffffffffffffff7fffffffffffffffffffffffff000000000000000000000000000000000000000083549260a01b169116179055565b6bffffffffffffffffffffffff8060018701935116167fffffffffffffffffffffffffffffffffffffffff000000000000000000000000835416178255516bffffffffffffffffffffffff7fffffffffffffffffffffffffffffffffffffffff00000000000000000000000083549260601b169116179055511673ffffffffffffffffffffffffffffffffffffffff6002830191167fffffffffffffffffffffffff0000000000000000000000000000000000000000825416179055019451167fffffffffffffffff00000000000000000000000000000000000000000000000077ffffffffffffffff000000000000000000000000000000008654935160801b169216171783555115157fffffffffffffff00ffffffffffffffffffffffffffffffffffffffffffffffff78ff00000000000000000000000000000000000000000000000084549260c01b1691161782555115157fffffffffffff00ffffffffffffffffffffffffffffffffffffffffffffffffff79ff0000000000000000000000000000000000000000000000000083549260c81b169116179055335f5260026020526118c58560405f20612e42565b612fcd565b73fffd8963efd1fc6a506488495d951d516396168273ffffffffffffffffffffffffffffffffffffffff7ffffffffffffffffffffffffffffffffffffffffffffffffffffffffefffd895d8301161161233a5777ffffffffffffffffffffffffffffffffffffffff000000008160201b168081156102ec5760ff826fffffffffffffffffffffffffffffffff1060071b83811c67ffffffffffffffff1060061b1783811c63ffffffff1060051b1783811c61ffff1060041b1783811c821060031b177f07060605060205000602030205040001060502050303040105050304000000006f8421084210842108cc6318c6db6d54be85831c1c601f161a17169160808310155f1461232e57507fffffffffffffffffffffffffffffffffffffffffffffffffffffffffffffff8182011c5b800280607f1c8160ff1c1c800280607f1c8160ff1c1c800280607f1c8160ff1c1c800280607f1c8160ff1c1c800280607f1c8160ff1c1c800280607f1c8160ff1c1c80029081607f1c8260ff1c1c80029283607f1c8460ff1c1c80029485607f1c8660ff1c1c80029687607f1c8860ff1c1c80029889607f1c8a60ff1c1c80029a8b607f1c8c60ff1c1c80029c8d80607f1c9060ff1c1c800260cd1c6604000000000000169d60cc1c6608000000000000169c60cb1c6610000000000000169b60ca1c6620000000000000169a60c91c6640000000000000169960c81c6680000000000000169860c71c670100000000000000169760c61c670200000000000000169660c51c670400000000000000169560c41c670800000000000000169460c31c671000000000000000169360c21c672000000000000000169260c11c674000000000000000169160c01c67800000000000000016907fffffffffffffffffffffffffffffffffffffffffffffffffffffffffffffff800160401b1717171717171717171717171717693627a301d71055774c85027ffffffffffffffffffffffffffffffffffd709b7e5480fba5a50fed5e62ffc556810160801d60020b906fdb2df09e81959a81455e260799a0632f0160801d60020b918282145f14611f92575090505b611be8612d3c565b9060020b9060020b908115611f65577fffffffffffffffffffffffffffffffffffffffffffffffffffffffffffffffff82147fffffffffffffffffffffffffffffffffffffffffffffffffffffffffff800000821416611ed85781810590825f82129182611f56575b5050611f05575b60020b02938460020b948503611ed857845f526004602052611c7d8460405f20612e42565b835f52600560205260405f207fffffffffffffffffffffffffffffffffffffffffffffffffffffffffff0000008154168662ffffff16179055845f52600860205260ff60405f20541615611d32575b60209450604051928352848301526040820152817f26319004cc83552ac9e9198e5d281d5a2787f53318a6263c8d2066afd9658af160603393a360017f9b779b17422d0df92223018b32b4d1fa46e071723d6817e2486d003becc55f0055604051908152f35b7fffffffffffffffffffffffffffffffffffffffffffffffffffffffffff8000005b8060020b90815f526006602052627fffff60405f205460020b141580611ec0575b15611d8f57505f52600660205260405f205460020b611d54565b60209691508060020b90815f526006885260405f205460020b915f526006885260405f207fffffffffffffffffffffffffffffffffffffffffffffffffffffffffff0000008154168462ffffff16179055825f526007885260405f20907fffffffffffffffffffffffffffffffffffffffffffffffffffffffffff0000008254169062ffffff16179055815f526006875260405f207fffffffffffffffffffffffffffffffffffffffffffffffffffffffffff0000008154168262ffffff161790555f526007865260405f207fffffffffffffffffffffffffffffffffffffffffffffffffffffffffff0000008154168262ffffff161790555f526008855260405f2060017fffffffffffffffffffffffffffffffffffffffffffffffffffffffffffffff00825416179055611ccc565b50815f5260066020528660405f205460020b12611d75565b7f4e487b71000000000000000000000000000000000000000000000000000000005f52601160045260245ffd5b60020b7fffffffffffffffffffffffffffffffffffffffffffffffffffffffffff8000008114611ed8577fffffffffffffffffffffffffffffffffffffffffffffffffffffffffffffffff01611c58565b0760020b151590508288611c51565b7f4e487b71000000000000000000000000000000000000000000000000000000005f52601260045260245ffd5b8260ff1d8381011890620d89e8821161230257600182167001fffcb933bd6fad37aa2d162d1a594001027001000000000000000000000000000000001891600281166122e6575b600481166122ca575b600881166122ae575b60108116612292575b60208116612276575b6040811661225a575b6080811661223e575b6101008116612222575b6102008116612206575b61040081166121ea575b61080081166121ce575b61100081166121b2575b6120008116612196575b614000811661217a575b618000811661215e575b620100008116612142575b620200008116612127575b62040000811661210c575b62080000166120f4575b5f84136120c9575b73ffffffffffffffffffffffffffffffffffffffff90811663ffffffff9290920160201c16116120c25750611be0565b9050611be0565b7fffffffffffffffffffffffffffffffffffffffffffffffffffffffffffffffff9190910490612092565b906b048a170391f7dc42444e8fa20260801c9061208a565b6d2216e584f5fa1ea926041bedfe9890920260801c91612080565b916e5d6af8dedb81196699c329225ee6040260801c91612075565b916f09aa508b5b7a84e1c677de54f3e99bc90260801c9161206a565b916f31be135f97d08fd981231505542fcfa60260801c9161205f565b916f70d869a156d2a1b890bb3df62baf32f70260801c91612055565b916fa9f746462d870fdf8a65dc1f90e061e50260801c9161204b565b916fd097f3bdfd2022b8845ad8f792aa58250260801c91612041565b916fe7159475a2c29b7443b29c7fa6e889d90260801c91612037565b916ff3392b0822b70005940c7a398e4b70f30260801c9161202d565b916ff987a7253ac413176f2b074cf7815e540260801c91612023565b916ffcbe86c7900a88aedcffc83b479aa3a40260801c91612019565b916ffe5dee046a99a2a811c461f1969c30530260801c9161200f565b916fff2ea16466c96a3843ec78b326b528610260801c91612006565b916fff973b41fa98c081472e6896dfb254c00260801c91611ffd565b916fffcb9843d60f6159c9db58835c9266440260801c91611ff4565b916fffe5caca7e10e4e61c3624eaa0941cd00260801c91611feb565b916ffff2e50f5f656932ef12357cf3c7fdcc0260801c91611fe2565b916ffff97272373d413259a46990580e213a0260801c91611fd9565b837f8b86327a000000000000000000000000000000000000000000000000000000005f5260045260245ffd5b905081607f031b6119fa565b73ffffffffffffffffffffffffffffffffffffffff907f61487524000000000000000000000000000000000000000000000000000000005f521660045260245ffd5b73ffffffffffffffffffffffffffffffffffffffff9091611611565b5f946115f3565b6123ab90303385613383565b6115ea565b7fc256622b000000000000000000000000000000000000000000000000000000005f5260045ffd5b7f42e1941c000000000000000000000000000000000000000000000000000000005f5260045ffd5b7f2c5211c6000000000000000000000000000000000000000000000000000000005f5260045ffd5b346102ec576101407ffffffffffffffffffffffffffffffffffffffffffffffffffffffffffffffffc3601126102ec57612460612988565b5060a07fffffffffffffffffffffffffffffffffffffffffffffffffffffffffffffffdc3601126102ec5760607fffffffffffffffffffffffffffffffffffffffffffffffffffffffffffffff3c3601126102ec576101243567ffffffffffffffff81116102ec576124d69036906004016129cc565b505073ffffffffffffffffffffffffffffffffffffffff7f00000000000000000000000000000000000000000000000000000000000000001633036104a3577f0a85dc29000000000000000000000000000000000000000000000000000000005f5260045ffd5b346102ec5760207ffffffffffffffffffffffffffffffffffffffffffffffffffffffffffffffffc3601126102ec5760043561257761305b565b805f52600160205260405f2073ffffffffffffffffffffffffffffffffffffffff815416330361274357600381019060ff825460c01c1661074457825f52600560205260405f205460020b91825f52600460205260405f20925f5b845481101561273857856125e68287612c20565b90549060031b1c146125fa576001016125d2565b6126079060ff94956130df565b805f52600460205260405f205415612729575b505460c81c16808061271c575b156126b75750612645600182015460601c825460a01c9033906132b9565b7fffffffffffffffffffffffff0000000000000000000000000000000000000000815416905533907fc0362da6f2ff36b382b34aec0814f6b3cdf89f5ef282a1d1f114d0c0b036d5965f80a360017f9b779b17422d0df92223018b32b4d1fa46e071723d6817e2486d003becc55f0055005b1580612701575b15612645576126fc73ffffffffffffffffffffffffffffffffffffffff6002830154166bffffffffffffffffffffffff6001840154169033906132b9565b612645565b506bffffffffffffffffffffffff60018201541615156126be565b50815460a01c1515612627565b612732906131ec565b8461261a565b5060ff929350612607565b7fc479c776000000000000000000000000000000000000000000000000000000005f5260045ffd5b346102ec5760207ffffffffffffffffffffffffffffffffffffffffffffffffffffffffffffffffc3601126102ec576004355f526005602052602060405f205460020b604051908152f35b346102ec575f7ffffffffffffffffffffffffffffffffffffffffffffffffffffffffffffffffc3601126102ec57602060405160648152f35b346102ec5760207ffffffffffffffffffffffffffffffffffffffffffffffffffffffffffffffffc3601126102ec57612826612ac5565b60020b5f526008602052602060ff60405f2054166040519015158152f35b346102ec575f7ffffffffffffffffffffffffffffffffffffffffffffffffffffffffffffffffc3601126102ec576020600354604051908152f35b346102ec5761288d366129fa565b505050505073ffffffffffffffffffffffffffffffffffffffff7f00000000000000000000000000000000000000000000000000000000000000001633036104a3577f0a85dc29000000000000000000000000000000000000000000000000000000005f5260045ffd5b346102ec575f7ffffffffffffffffffffffffffffffffffffffffffffffffffffffffffffffffc3601126102ec576020600a54604051908152f35b346102ec575f7ffffffffffffffffffffffffffffffffffffffffffffffffffffffffffffffffc3601126102ec57807fffffffffffffffffffffffffffffffffffffffffffffffffffffffffff80000060209252f35b6004359073ffffffffffffffffffffffffffffffffffffffff821682036102ec57565b359073ffffffffffffffffffffffffffffffffffffffff821682036102ec57565b9181601f840112156102ec5782359167ffffffffffffffff83116102ec57602083818601950101116102ec57565b906101607ffffffffffffffffffffffffffffffffffffffffffffffffffffffffffffffffc8301126102ec5760043573ffffffffffffffffffffffffffffffffffffffff811681036102ec579160a07fffffffffffffffffffffffffffffffffffffffffffffffffffffffffffffffdc8201126102ec5760249160807fffffffffffffffffffffffffffffffffffffffffffffffffffffffffffffff3c8301126102ec5760c491610144359067ffffffffffffffff82116102ec57612ac1916004016129cc565b9091565b600435908160020b82036102ec57565b60e435908160020b82036102ec57565b35908160020b82036102ec57565b60206040818301928281528451809452019201905f5b818110612b165750505090565b8251845260209384019390920191600101612b09565b906101a07ffffffffffffffffffffffffffffffffffffffffffffffffffffffffffffffffc8301126102ec5760043573ffffffffffffffffffffffffffffffffffffffff811681036102ec579160a07fffffffffffffffffffffffffffffffffffffffffffffffffffffffffffffffdc8201126102ec5760249160807fffffffffffffffffffffffffffffffffffffffffffffffffffffffffffffff3c8301126102ec5760c49161014435916101643591610184359067ffffffffffffffff82116102ec57612ac1916004016129cc565b60c4359073ffffffffffffffffffffffffffffffffffffffff821682036102ec57565b8054821015612c35575f5260205f2001905f90565b7f4e487b71000000000000000000000000000000000000000000000000000000005f52603260045260245ffd5b6101207ffffffffffffffffffffffffffffffffffffffffffffffffffffffffffffffffc8201126102ec5760043573ffffffffffffffffffffffffffffffffffffffff811681036102ec579160a07fffffffffffffffffffffffffffffffffffffffffffffffffffffffffffffffdc8301126102ec5760249160c4359160e43591610104359067ffffffffffffffff82116102ec57612ac1916004016129cc565b346102ec575f7ffffffffffffffffffffffffffffffffffffffffffffffffffffffffffffffffc3601126102ec57602060405160328152f35b6064358060020b81036102ec5790565b7fffffffffffffffffffffffffffffffffffffffffffffffffffffffffffffffff8114611ed85760010190565b3573ffffffffffffffffffffffffffffffffffffffff811681036102ec5790565b610120810190811067ffffffffffffffff821117612db757604052565b7f4e487b71000000000000000000000000000000000000000000000000000000005f52604160045260245ffd5b6101c0810190811067ffffffffffffffff821117612db757604052565b90601f7fffffffffffffffffffffffffffffffffffffffffffffffffffffffffffffffe0910116810190811067ffffffffffffffff821117612db757604052565b9081549168010000000000000000831015612db75782612e6a916001612ea095018155612c20565b9091907fffffffffffffffffffffffffffffffffffffffffffffffffffffffffffffffff83549160031b92831b921b1916179055565b565b91908201809211611ed857565b8115611f65570490565b908115612efa5760018201808311611ed85760011c825b838210612edb575050565b909250612ef183612eec8184612eaf565b612ea2565b60011c90612ed0565b5f9150565b906126de8202918083046126de1490151715611ed857565b81810292918115918404141715611ed857565b73ffffffffffffffffffffffffffffffffffffffff612f4a911680612f17565b60601c670de0b6b3a7640000810290808204670de0b6b3a76400001490151715611ed85760601c6fffffffffffffffffffffffffffffffff8111612f9d576fffffffffffffffffffffffffffffffff1690565b7f6dfcc650000000000000000000000000000000000000000000000000000000005f52608060045260245260445ffd5b7bffffffffffffffffffffffffffffffff0000000000000000000000006fffffffffffffffffffffffffffffffff82169160601b16908082046c010000000000000000000000001490151715611ed857670de0b6b3a764000090048060601b908082046c010000000000000000000000001490151715611ed85761305361305891612eb9565b613711565b90565b60027f9b779b17422d0df92223018b32b4d1fa46e071723d6817e2486d003becc55f0054146130aa5760027f9b779b17422d0df92223018b32b4d1fa46e071723d6817e2486d003becc55f0055565b7f3ee5aeb5000000000000000000000000000000000000000000000000000000005f5260045ffd5b91908203918211611ed857565b90815490818110156131c4577fffffffffffffffffffffffffffffffffffffffffffffffffffffffffffffffff8201918211611ed857612e6a6131256131339385612c20565b90549060031b1c9184612c20565b80548015613197577fffffffffffffffffffffffffffffffffffffffffffffffffffffffffffffffff01906131688282612c20565b7fffffffffffffffffffffffffffffffffffffffffffffffffffffffffffffffff82549160031b1b1916905555565b7f4e487b71000000000000000000000000000000000000000000000000000000005f52603160045260245ffd5b7f4e23d035000000000000000000000000000000000000000000000000000000005f5260045ffd5b60020b805f52600860205260ff60405f205416156132b6575f8181526007602081815260408084208054600684528286208054600283810b8952858920805462ffffff8085167fffffffffffffffffffffffffffffffffffffffffffffffffffffffffff000000928316179092559290910b89529686528488208054979093169681169690961790915595855285548416909555845490921690935560089092522080547fffffffffffffffffffffffffffffffffffffffffffffffffffffffffffffff00169055565b50565b9173ffffffffffffffffffffffffffffffffffffffff604051927fa9059cbb000000000000000000000000000000000000000000000000000000005f521660045260245260205f60448180865af19060015f5114821615613362575b604052156133205750565b73ffffffffffffffffffffffffffffffffffffffff907f5274afe7000000000000000000000000000000000000000000000000000000005f521660045260245ffd5b90600181151661337a57823b15153d15161690613315565b503d5f823e3d90fd5b92909173ffffffffffffffffffffffffffffffffffffffff9081604051947f23b872dd000000000000000000000000000000000000000000000000000000005f52166004521660245260445260205f60648180865af19060015f51148216156133f6575b6040525f606052156133205750565b90600181151661337a57823b15153d151616906133e7565b73ffffffffffffffffffffffffffffffffffffffff5f5416330361342e57565b7f118cdaa7000000000000000000000000000000000000000000000000000000005f523360045260245ffd5b359062ffffff821682036102ec57565b91908260a09103126102ec5760405160a0810181811067ffffffffffffffff821117612db75760405260806134df8183956134a4816129ab565b85526134b2602082016129ab565b60208601526134c36040820161345a565b60408601526134d460608201612ae5565b6060860152016129ab565b910152565b60ff6009541661362e5761353061352860a061350136602461346a565b207f0000000000000000000000000000000000000000000000000000000000000000613775565b505050612f2a565b9060c43580151581036102ec576024359173ffffffffffffffffffffffffffffffffffffffff8316928381036102ec57505f911561366c577fffffffffffffffffffffffffffffffffffffffffffffffffffffffffff8000005f5260066020527f1d90985ad18a41820b494ca6b2645fdac2e60689eb718cc03c4b28ec8b6790145460020b915b8260020b92627fffff8414158061365f575b1561365457620249f05a10613627579061361391845f52600660205260405f205460020b946135fb6024898985613879565b5f52600460205260405f205415613618575b50613866565b6135b7565b613621906131ec565b5f61360d565b5050925050505b7fb47b2fb100000000000000000000000000000000000000000000000000000000905f90565b50509250505061362e565b5060648260020b126135c9565b627fffff5f5260076020527fa51472851f2a9320021f73aa454c1a9b411776c307ddac663184934b796d6dac5460020b915b8260020b927fffffffffffffffffffffffffffffffffffffffffffffffffffffffffff80000084141580613704575b1561365457620249f05a1061365457906136ff91845f52600760205260405f205460020b946135fb6024898985613879565b61369e565b5060648260020b126136cd565b73ffffffffffffffffffffffffffffffffffffffff81116137455773ffffffffffffffffffffffffffffffffffffffff1690565b7f6dfcc650000000000000000000000000000000000000000000000000000000005f5260a060045260245260445ffd5b602090602473ffffffffffffffffffffffffffffffffffffffff949360405184810191825260066040820152604081526137b0606082612e01565b51902060405195869384927f1e2eaeaf0000000000000000000000000000000000000000000000000000000084526004840152165afa91821561385b575f92613827575b5073ffffffffffffffffffffffffffffffffffffffff8216918060a01c60020b9162ffffff808360b81c169260d01c1690565b9091506020813d602011613853575b8161384360209383612e01565b810103126102ec5751905f6137f4565b3d9150613836565b6040513d5f823e3d90fd5b60020b627fffff8114611ed85760010190565b93929360020b5f52600460205260405f20935f935b85548510156139b857620249f05a106139b8576138ab8587612c20565b90549060031b1c805f52600160205260405f2073ffffffffffffffffffffffffffffffffffffffff8154161580156139a7575b61399b57600181015460601c73ffffffffffffffffffffffffffffffffffffffff861603613974576fffffffffffffffffffffffffffffffff600382015460ff8160c81c165f1461398057166fffffffffffffffffffffffffffffffff871610155b1561397457906139509184613a1b565b156139645761395f85876130df565b61388e565b9361396e90612d4c565b9361388e565b50509361396e90612d4c565b166fffffffffffffffffffffffffffffffff87161115613940565b505061395f85876130df565b5060ff600382015460c01c166138de565b945050505050565b7f80000000000000000000000000000000000000000000000000000000000000008114611ed8575f0390565b600f0b7fffffffffffffffffffffffffffffffff800000000000000000000000000000008114611ed8575f0390565b91905f9260017fffffffffffffffffffffffffffffffffffffffffffffffffffffffffffffff006009541617600955600382019160ff835460c81c1694855f14614d6d57815460a01c955b7f000000000000000000000000000000000000000000000000000000000000000093613a9e60a0613a97368461346a565b2086613775565b50505094825f14614d315773ffffffffffffffffffffffffffffffffffffffff8616605f810290808204605f1490151715611ed8576064613adf9104613711565b915b8315614d1057613af4865460a01c6139c0565b935b60405192606084019084821067ffffffffffffffff831117612db75773ffffffffffffffffffffffffffffffffffffffff92839260405215158552602085019687528160408601961686521693604051957ff3cd914c00000000000000000000000000000000000000000000000000000000875282613b74856129ab565b166004880152602084019483613b89876129ab565b16602489015262ffffff613b9f6040870161345a565b166044890152613bb160608601612ae5565b60020b606489015283613bc6608087016129ab565b16608489015251151560a48801525160c4870152511660e48501526101206101048501525f610124850152602084610144815f875af193841561385b575f94614cdc575b50875460c81c60ff16156144fc57613c2190612d79565b823b156140c05773ffffffffffffffffffffffffffffffffffffffff604051917fa5841194000000000000000000000000000000000000000000000000000000008352166004820152848160248183875af180156144f1579085916144dc575b5050816001860193613ca8855460601c6bffffffffffffffffffffffff8d169586916132b9565b6040517f11da60b40000000000000000000000000000000000000000000000000000000081526020816004818a875af180156140ec57908a9594939291614497575b50806fffffffffffffffffffffffffffffffff91600f0b8881125f1461449057613d1491506139ec565b165b612710613d61670de0b6b3a7640000613d5b83613d35600a5487612f17565b04976fffffffffffffffffffffffffffffffff613d528a886130d2565b9a541690612f17565b04612eff565b04116140fb57613d7082612d79565b73ffffffffffffffffffffffffffffffffffffffff88541690823b156140f7576040517f0b0d9c0900000000000000000000000000000000000000000000000000000000815273ffffffffffffffffffffffffffffffffffffffff91821660048201529116602482015260448101859052868160648183865af180156140ec579087916140d3575b505082613f6d575b50505092613f2f9273ffffffffffffffffffffffffffffffffffffffff95926bffffffffffffffffffffffff613e98899778010000000000000000000000000000000000000000000000007fffffffffffffff00ffffffffffffffffffffffffffffffffffffffffffffffff7f2e22da0df0a2378dcccd637d72017e86a9701780ae19894d045a3b71ec018d959c5416178955614d86565b167fffffffffffffffffffffffffffffffffffffffff0000000000000000000000008254161790555b508054935460c81c60ff1615613f5f576bffffffffffffffffffffffff6001613eed9201541691612f2a565b604080516bffffffffffffffffffffffff998a1681529890921660208901526fffffffffffffffffffffffffffffffff16908701529116939081906060820190565b0390a37fffffffffffffffffffffffffffffffffffffffffffffffffffffffffffffff0060095416600955600190565b50613eed8360a01c91612f2a565b613f7682612d79565b813b156140cf576040517f0b0d9c0900000000000000000000000000000000000000000000000000000000815273ffffffffffffffffffffffffffffffffffffffff919091166004820152306024820152604481018490529086908290606490829084905af180156140c457908a92916140a6575b50613e987f2e22da0df0a2378dcccd637d72017e86a9701780ae19894d045a3b71ec018d95999794613f2f979473ffffffffffffffffffffffffffffffffffffffff9a97947ff1d6c8ee14081f641e2073a1064d870f135f1001a301c6b14a7b9655672fec1160208d61408c888261406f6bffffffffffffffffffffffff9b612d79565b168c52600b845260408c20614085888254612ea2565b9055612d79565b1693604051908152a3949799505081949750829550613e00565b86809293506140b491612e01565b6140c05788905f613feb565b8480fd5b6040513d88823e3d90fd5b8680fd5b816140dd91612e01565b6140e857855f613df8565b8580fd5b6040513d89823e3d90fd5b8780fd5b61410c8293949b9899959692612d79565b73ffffffffffffffffffffffffffffffffffffffff88541690823b1561448c576040517f0b0d9c0900000000000000000000000000000000000000000000000000000000815273ffffffffffffffffffffffffffffffffffffffff918216600482015291166024820152604481018c9052828160648183865af1801561448157908391614468575b505083614317575b505050506142d073ffffffffffffffffffffffffffffffffffffffff7f2e22da0df0a2378dcccd637d72017e86a9701780ae19894d045a3b71ec018d95969594613f2f948478010000000000000000000000000000000000000000000000007fffffffffffffff00ffffffffffffffffffffffffffffffffffffffffffffffff6142d69754161790556bffffffffffffffffffffffff61423b8c614d86565b167fffffffffffffffffffffffffffffffffffffffff000000000000000000000000825416179055887fb12dcfc2d304ece69fcdcedba9161f1adca47570ba8b901188268eaa69d86720604051806142c58160609060208152601060208201527f536c69707061676545786365656465640000000000000000000000000000000060408201520190565b0390a2541697614d86565b93612f2a565b604051938493849160409194936bffffffffffffffffffffffff6fffffffffffffffffffffffffffffffff9281606087019816865216602085015216910152565b61432083612d79565b813b15614464576040517f0b0d9c0900000000000000000000000000000000000000000000000000000000815273ffffffffffffffffffffffffffffffffffffffff919091166004820152306024820152604481018590529082908290606490829084905af1801561445957908a93929161443b575b50946142d6946142d09473ffffffffffffffffffffffffffffffffffffffff947ff1d6c8ee14081f641e2073a1064d870f135f1001a301c6b14a7b9655672fec116020876144257f2e22da0df0a2378dcccd637d72017e86a9701780ae19894d045a3b71ec018d959f9e9d986040613f2f9e8461441284612d79565b168152600b865220614085888254612ea2565b1693604051908152a3945094819697985061419c565b818093945061444991612e01565b614456579088915f614396565b80fd5b6040513d84823e3d90fd5b8280fd5b8161447291612e01565b61447d57815f614194565b5080fd5b6040513d85823e3d90fd5b8380fd5b5016613d16565b9094506020813d6020116144d4575b816144b360209383612e01565b810103126102ec575088936fffffffffffffffffffffffffffffffff613cea565b3d91506144a6565b816144e691612e01565b61448c57835f613c81565b6040513d87823e3d90fd5b9061450990949394612d79565b823b156102ec5773ffffffffffffffffffffffffffffffffffffffff604051917fa58411940000000000000000000000000000000000000000000000000000000083521660048201525f8160248183875af1801561385b57614cc8575b5081929361459f73ffffffffffffffffffffffffffffffffffffffff6002880154166bffffffffffffffffffffffff8c169586916132b9565b604051907f11da60b400000000000000000000000000000000000000000000000000000000825260208260048189885af180156140c457614c87575b6fffffffffffffffffffffffffffffffff915060801d8581600f0b125f14614c8057614606906139ec565b16915b612710614618600a5485612f17565b049261462484826130d2565b94670de0b6b3a7640000810290808204670de0b6b3a76400001490151715614c535761466f61466a612710926fffffffffffffffffffffffffffffffff8d541690612eaf565b612eff565b041161493a5761467e82612d79565b73ffffffffffffffffffffffffffffffffffffffff87541690823b156140cf576040517f0b0d9c0900000000000000000000000000000000000000000000000000000000815273ffffffffffffffffffffffffffffffffffffffff91821660048201529116602482015260448101859052858160648183865af180156140c457908691614925575b5050826147e5575b505050928492613f2f926147e061479b73ffffffffffffffffffffffffffffffffffffffff9778010000000000000000000000000000000000000000000000007fffffffffffffff00ffffffffffffffffffffffffffffffffffffffffffffffff7f2e22da0df0a2378dcccd637d72017e86a9701780ae19894d045a3b71ec018d959b5416178855614d86565b835473ffffffffffffffffffffffffffffffffffffffff1660a09190911b7fffffffffffffffffffffffff000000000000000000000000000000000000000016178355565b613ec1565b6147ee82612d79565b813b156140e8576040517f0b0d9c0900000000000000000000000000000000000000000000000000000000815273ffffffffffffffffffffffffffffffffffffffff919091166004820152306024820152604481018490529085908290606490829084905af180156144f1579089929161490b575b5061479b73ffffffffffffffffffffffffffffffffffffffff97947f2e22da0df0a2378dcccd637d72017e86a9701780ae19894d045a3b71ec018d95999794613f2f97947ff1d6c8ee14081f641e2073a1064d870f135f1001a301c6b14a7b9655672fec1160208c6148f288826148dc6147e09b612d79565b168b52600b845260408b20614085888254612ea2565b1693604051908152a3949750508295975081945061470e565b858092935061491991612e01565b61448c5787905f614863565b8161492f91612e01565b6140c057845f614706565b61494a8293949a97989592612d79565b73ffffffffffffffffffffffffffffffffffffffff87541690823b1561448c576040517f0b0d9c0900000000000000000000000000000000000000000000000000000000815273ffffffffffffffffffffffffffffffffffffffff918216600482015291166024820152604481018b9052828160648183865af1801561448157908391614c3e575b505083614b15575b505050506142d66142d073ffffffffffffffffffffffffffffffffffffffff7f2e22da0df0a2378dcccd637d72017e86a9701780ae19894d045a3b71ec018d959695948478010000000000000000000000000000000000000000000000007fffffffffffffff00ffffffffffffffffffffffffffffffffffffffffffffffff613f2f975416179055614ab3614a6e8b614d86565b825473ffffffffffffffffffffffffffffffffffffffff1660a09190911b7fffffffffffffffffffffffff000000000000000000000000000000000000000016178255565b887fb12dcfc2d304ece69fcdcedba9161f1adca47570ba8b901188268eaa69d86720604051806142c58160609060208152601060208201527f536c69707061676545786365656465640000000000000000000000000000000060408201520190565b614b1e83612d79565b813b15614464576040517f0b0d9c0900000000000000000000000000000000000000000000000000000000815273ffffffffffffffffffffffffffffffffffffffff919091166004820152306024820152604481018590529082908290606490829084905af18015614459579089939291614c23575b5094613f2f946142d6946142d0947ff1d6c8ee14081f641e2073a1064d870f135f1001a301c6b14a7b9655672fec11602073ffffffffffffffffffffffffffffffffffffffff614c10887f2e22da0df0a2378dcccd637d72017e86a9701780ae19894d045a3b71ec018d959f9e9d60409084614412819d612d79565b1693604051908152a394509495966149da565b8180939450614c3191612e01565b614456579087915f614b94565b81614c4891612e01565b61447d57815f6149d2565b6024877f4e487b710000000000000000000000000000000000000000000000000000000081526011600452fd5b1691614609565b6020823d602011614cc0575b81614ca060209383612e01565b810103126102ec576fffffffffffffffffffffffffffffffff91506145db565b3d9150614c93565b8293505f614cd591612e01565b5f92614566565b9093506020813d602011614d08575b81614cf860209383612e01565b810103126102ec5751925f613c0a565b3d9150614ceb565b614d2b6bffffffffffffffffffffffff6001880154166139c0565b93613af6565b73ffffffffffffffffffffffffffffffffffffffff8616606981029080820460691490151715611ed8576064614d679104613711565b91613ae1565b6bffffffffffffffffffffffff60018301541695613a66565b6bffffffffffffffffffffffff8111614daa576bffffffffffffffffffffffff1690565b7f6dfcc650000000000000000000000000000000000000000000000000000000005f52606060045260245260445ffdfea264697066735822122009dafe9890d397de0e988cb5a4c44fd14afb5424b38a99f8d53557393f215de264736f6c634300081a0033","linkReferences":{}},"methodIdentifiers":{"GAS_LIMIT_PER_ORDER()":"e610e98b","MAX_ACTIVE_TICK_SCAN()":"3d7051ec","MAX_FEE_BPS()":"d55be8c6","MAX_SLIPPAGE_BPS()":"e229cd76","SENTINEL_MAX()":"dd0bd575","SENTINEL_MIN()":"0d019c32","afterAddLiquidity(address,(address,address,uint24,int24,address),(int24,int24,int256,bytes32),int256,int256,bytes)":"9f063efc","afterDonate(address,(address,address,uint24,int24,address),uint256,uint256,bytes)":"e1b4af69","afterInitialize(address,(address,address,uint24,int24,address),uint160,int24)":"6fe7e6eb","afterRemoveLiquidity(address,(address,address,uint24,int24,address),(int24,int24,int256,bytes32),int256,int256,bytes)":"6c2bbe7e","afterSwap(address,(address,address,uint24,int24,address),(bool,int256,uint160),int256,bytes)":"b47b2fb1","beforeAddLiquidity(address,(address,address,uint24,int24,address),(int24,int24,int256,bytes32),bytes)":"259982e5","beforeDonate(address,(address,address,uint24,int24,address),uint256,uint256,bytes)":"b6a8b0fa","beforeInitialize(address,(address,address,uint24,int24,address),uint160)":"dc98354e","beforeRemoveLiquidity(address,(address,address,uint24,int24,address),(int24,int24,int256,bytes32),bytes)":"21d0ee70","beforeSwap(address,(address,address,uint24,int24,address),(bool,int256,uint160),bytes)":"575e24b4","cancelOrder(uint256)":"514fcac7","createLimitOrder((address,address,uint24,int24,address),bool,uint96,uint128)":"58a86a01","feeBps()":"24a9d853","forceCancelOrder(uint256)":"deb2ec6a","getHookPermissions()":"c4e833ce","getNextActiveTick(int24)":"6156715c","getOrder(uint256)":"d09ef241","getOrdersInTick(int24)":"d90e9aac","getPendingFees(address)":"a4bf34ba","getPrevActiveTick(int24)":"a64344e1","getTickBucket(uint256)":"3f950cdb","getUserOrders(address)":"63c69f08","isActiveTick(int24)":"2b095682","nextActiveTick(int24)":"a8c95f60","nextOrderId()":"2a58b330","orders(uint256)":"a85c38ef","owner()":"8da5cb5b","pendingFees(address)":"25d2a3f3","poolManager()":"dc4c90d3","prevActiveTick(int24)":"6bb67da3","renounceOwnership()":"715018a6","setFeeBps(uint256)":"72c27b62","sqrt(uint256)":"677342ce","sqrtPriceToUint128(uint160)":"c06d4130","tickToOrders(int24,uint256)":"b210c18b","transferOwnership(address)":"f2fde38b","uint128ToSqrtPrice(uint128)":"cc4a6724","withdrawFees(address,address)":"f2555278"},"id":90}